:020000040000fa
:080000000002040000000000f2
:020000040000fa
:04000800740300007d
:020000040000fa
:04000c0042030000ab
:020000040000fa
:0400100048030000a1
:020000040000fa
:040014005003000095
:020000040000fa
:04001800560300008b
:020000040000fa
:04001c007403000069
:020000040000fa
:040020007403000065
:020000040000fa
:040024007403000061
:020000040000fa
:04002800740300005d
:020000040000fa
:04002c007403000059
:020000040000fa
:040030007403000055
:020000040000fa
:040034007403000051
:020000040000fa
:04003800740300004d
:020000040000fa
:04003c007403000049
:020000040000fa
:040040007403000045
:020000040000fa
:04004400cc020000ea
:020000040000fa
:04004800740300003d
:020000040000fa
:04004c007403000039
:020000040000fa
:040050007403000035
:020000040000fa
:040054007403000031
:020000040000fa
:04005800740300002d
:020000040000fa
:04005c00d4020000ca
:020000040000fa
:040060007403000025
:020000040000fa
:040064007403000021
:020000040000fa
:04006800040300008d
:020000040000fa
:04006c007403000019
:020000040000fa
:040070007403000015
:020000040000fa
:040074007403000011
:020000040000fa
:04007800740300000d
:020000040000fa
:04007c007403000009
:020000040000fa
:040080007403000005
:020000040000fa
:040084007403000001
:020000040000fa
:0400880074030000fd
:020000040000fa
:04008c0074030000f9
:020000040000fa
:0400900074030000f5
:020000040000fa
:0400940074030000f1
:020000040000fa
:0400980074030000ed
:020000040000fa
:04009c0074030000e9
:020000040000fa
:0400a00074030000e5
:020000040000fa
:0400a40074030000e1
:020000040000fa
:0400a80074030000dd
:020000040000fa
:0400ac0074030000d9
:020000040000fa
:0400b00074030000d5
:020000040000fa
:0400b40074030000d1
:020000040000fa
:0400b80074030000cd
:020000040000fa
:0400bc0074030000c9
:020000040000fa
:0400c00074030000c5
:020000040000fa
:0400c40074030000c1
:020000040000fa
:0400c80074030000bd
:020000040000fa
:0400cc0074030000b9
:020000040000fa
:0400d00074030000b5
:020000040000fa
:0400d40074030000b1
:020000040000fa
:0400d80074030000ad
:020000040000fa
:0400dc0074030000a9
:020000040000fa
:0400e00074030000a5
:020000040000fa
:0400e40074030000a1
:020000040000fa
:0400e800740300009d
:020000040000fa
:0400ec007403000099
:020000040000fa
:0400f0007403000095
:020000040000fa
:0400f4007403000091
:020000040000fa
:0400f800740300008d
:020000040000fa
:0400fc007403000089
:020000040000fa
:040100007403000084
:020000040000fa
:040104007403000080
:020000040000fa
:04010800740300007c
:020000040000fa
:04010c007403000078
:020000040000fa
:040110007403000074
:020000040000fa
:040114007403000070
:020000040000fa
:04011800740300006c
:020000040000fa
:04011c007403000068
:020000040000fa
:040120007403000064
:020000040000fa
:040124007403000060
:020000040000fa
:04012800740300005c
:020000040000fa
:04012c007403000058
:020000040000fa
:040130007403000054
:020000040000fa
:040134007403000050
:020000040000fa
:04013800740300004c
:020000040000fa
:04013c007403000048
:020000040000fa
:040140007403000044
:020000040000fa
:040144007403000040
:020000040000fa
:04014800740300003c
:020000040000fa
:04014c007403000038
:020000040000fa
:040150007403000034
:020000040000fa
:040154007403000030
:020000040000fa
:04015800740300002c
:020000040000fa
:04015c007403000028
:020000040000fa
:040160007403000024
:020000040000fa
:040164007403000020
:020000040000fa
:04020800740300007b
:020000040000fa
:04020c005c0300008f
:020000040000fa
:040210006203000085
:020000040000fa
:04021400680300007b
:020000040000fa
:040218006e03000071
:020000040000fa
:04021c007403000067
:020000040000fa
:040220007403000063
:020000040000fa
:04022400740300005f
:020000040000fa
:04022800740300005b
:020000040000fa
:04022c007403000057
:020000040000fa
:040230007403000053
:020000040000fa
:04023400740300004f
:020000040000fa
:04023800740300004b
:020000040000fa
:04023c007403000047
:020000040000fa
:040240007403000043
:020000040000fa
:04024400cc020000e8
:020000040000fa
:04024800740300003b
:020000040000fa
:04024c007403000037
:020000040000fa
:040250007403000033
:020000040000fa
:04025400740300002f
:020000040000fa
:04025800740300002b
:020000040000fa
:04025c00d4020000c8
:020000040000fa
:040260007403000023
:020000040000fa
:04026400740300001f
:020000040000fa
:04026800040300008b
:020000040000fa
:04026c007403000017
:020000040000fa
:040270007403000013
:020000040000fa
:04027400740300000f
:020000040000fa
:04027800740300000b
:020000040000fa
:04027c007403000007
:020000040000fa
:040280007403000003
:020000040000fa
:0402840074030000ff
:020000040000fa
:0402880074030000fb
:020000040000fa
:04028c0074030000f7
:020000040000fa
:0402900074030000f3
:020000040000fa
:0402940074030000ef
:020000040000fa
:0402980074030000eb
:020000040000fa
:04029c0074030000e7
:020000040000fa
:0402a00074030000e3
:020000040000fa
:0402a40074030000df
:020000040000fa
:0402a80074030000db
:020000040000fa
:0402ac0074030000d7
:020000040000fa
:0402b00074030000d3
:020000040000fa
:0402b40074030000cf
:020000040000fa
:0402b80074030000cb
:020000040000fa
:0402bc0074030000c7
:020000040000fa
:0402c00074030000c3
:020000040000fa
:0402c40074030000bf
:020000040000fa
:0402c80074030000bb
:020000040000fa
:0402cc0074030000b7
:020000040000fa
:0402d00074030000b3
:020000040000fa
:0402d40074030000af
:020000040000fa
:0402d80074030000ab
:020000040000fa
:0402dc0074030000a7
:020000040000fa
:0402e00074030000a3
:020000040000fa
:0402e400740300009f
:020000040000fa
:0402e800740300009b
:020000040000fa
:0402ec007403000097
:020000040000fa
:0402f0007403000093
:020000040000fa
:0402f400740300008f
:020000040000fa
:0402f800740300008b
:020000040000fa
:0402fc007403000087
:020000040000fa
:040300007403000082
:020000040000fa
:04030400740300007e
:020000040000fa
:04030800740300007a
:020000040000fa
:04030c007403000076
:020000040000fa
:040310007403000072
:020000040000fa
:04031400740300006e
:020000040000fa
:04031800740300006a
:020000040000fa
:04031c007403000066
:020000040000fa
:040320007403000062
:020000040000fa
:04032400740300005e
:020000040000fa
:04032800740300005a
:020000040000fa
:04032c007403000056
:020000040000fa
:040330007403000052
:020000040000fa
:04033400740300004e
:020000040000fa
:04033800740300004a
:020000040000fa
:04033c007403000046
:020000040000fa
:040340007403000042
:020000040000fa
:04034400740300003e
:020000040000fa
:04034800740300003a
:020000040000fa
:04034c007403000036
:020000040000fa
:040350007403000032
:020000040000fa
:04035400740300002e
:020000040000fa
:04035800740300002a
:020000040000fa
:04035c007403000026
:020000040000fa
:040360007403000022
:020000040000fa
:04036400740300001e
:020000040000fa
:100400004fc121000e7f22000e0188000000000075
:10041000000020000000e000020032000001200087
:100420002002880014000700d30007000000e0004d
:1004300003003a00809c20000100200002003700e9
:100440000000200001002000810f70000100320038
:1004500014000700000020000000e000020032004d
:10046000000002000000000014090200000000006b
:100470000040da000000fe004440a9000000200017
:100480000000e0000300320000002000a00188000e
:100490004440a800000006008a1f78008b1f7800e7
:1004a0000000060091018800800478000000eb0045
:1004b0001a003700e284440032a0b4009905ba0063
:1004c000e284440032a0b4009906ba00e2844400f9
:1004d00032a0b4000006eb00476fde00fd07b2005b
:1004e000636ce10003003a00ebff07000000eb0043
:1004f0000a003700606ce10004003a00005deb0088
:100500008b05e900fdff3e00040037006168e10053
:10051000010032000086eb000b00070019c7ba008b
:100520001905ba000e04e00003003a000a00e000da
:10053000e0ff3a0000000600fe07b2009e018800be
:100540008a047800f5ff3700395dba008b05e900b1
:100550000c003200295dba008b05e900080032006a
:100560000c00e00003003a00e284440032a0b40032
:10057000f5ff370019ddba008b05e900faff3a00f4
:100580008904e800e184440032a0b40000000600c1
:1005900000000400000000000000fa0084e0a90050
:1005a0000080fa0000400600809fbe00821f780095
:1005b0000000fa0031408000309f2000808f500002
:1005c0000a003e0030408000021880008000400099
:1005d00060812000008040000208780030408000e8
:1005e0000000e8003040880002003700302721007a
:1005f0002040880085a0a9000080fa004f01780003
:100600004f00be00004006003600f800809fbe008c
:10061000829fbe00849fbe00869fbe000200fa003b
:1006200008c2a9000782a90000108000000f78000e
:100630000782a900000000004010800062006000f6
:100640000000e000fcff3a00624080008140800032
:1006500070408000820178001e017800a10107002f
:100660000782a8008600a9000080fa004f03be00a0
:100670004f02be004f01be004f00be003600f90021
:10068000004006000000fa008020a900ffff3700ac
:100690000000fa008060a9000080fa000040060017
:1006a0000000fa008040a900ffff37000000fa00b8
:1006b0008080a900ffff37000000fa008020a90019
:1006c000ffff37000000fa008060a900ffff37003d
:1006d0000000fa008040a900ffff37000000fa0088
:1006e0008080a900ffff37000000fa00ffff3700fd
:1006f000889fbe008004780090e080000000e00049
:1007000005003a000000eb000e0007000084eb003b
:100710000000e0000800350098e080000900e000db
:100720000500320009004400060007000000e00058
:1007300001003d000084eb00080078004f04be007b
:1007400000000600800078000100e00003003a008d
:100750000000200090e08800000005000080eb0011
:1007600002002000828f500002003e0091e08800cd
:100770000000eb0000000600000005000200fa0087
:10078000889fbe000000e00001003a001000200039
:100790000004e8000800a10080e080000000e800fc
:1007a0000000a10080e08800000020000000e000c0
:1007b00009003200e10f540001003e002800200033
:1007c000080078000efe0700290020000000e0006d
:1007d00022003a00010037008004eb0080e0800036
:1007e00071e0800000805000800f5400110036003e
:1007f00008804400d0bf9f00668057001a000700a1
:10080000800078000000eb000100e00013003200df
:100810000100e8000000a10071e08000810f50009d
:100820000100320080e08800dfb89700010040003e
:1008300070e0880081e080000900e00003003200e1
:1008400001007800081878000100370001007800e6
:10085000088444008880400081e088004f04be0086
:100860000080fa0000000600900078000000eb0015
:100870000100e00005003500010078009cff070042
:10088000e10f400001003a000000eb00000006000c
:020000040000fa
:100890000000fa00900020002010880000002800ce
:1008a0003010880007e2a8000080fa00000006006f
:1008b0000200fa00004f78000e00e80001487800be
:1008c0000602a800000000003010800061006000f7
:1008d0000000e000fcff3a001e00fb001010880042
:1008e0000000000040108000610060000000e00097
:1008f000fcff3a000642a8000080fa000000060053
:100900000200fa009000200020108800000028005b
:100910003010880006e2a80006c2a8000782a800de
:100920000722a8000222ef00a0002000501088003b
:100930009600a8008600a900200120008fff070074
:10094000000f78001e0078000080fa00000006000a
:100950000200fa00000f78001e0078006a004000d4
:10096000100078000080fa00000006000a00fa007b
:10097000e40147008009780066004700010878001c
:1009800068004700020878006800470010007800ff
:100990000000e00003003200e10f500015003200bb
:1009a0002300370066004700100078000000400078
:1009b000e400470091007800808040000e80e8004d
:1009c000010878000e80e800100078001000780020
:1009d000000f780000f02f001e0f60001e0078004e
:1009e0004880de00000f7800f00f20001e0f60002e
:1009f0000f0037006600470010007800000040003c
:100a0000e400470091007800808040000e80e800fc
:100a1000010878000e80e8001000780010007800cf
:100a2000000f7800f00f20001e0f60000000000093
:100a30001e007800004078000080fa0000000600e8
:100a40000200fa00000f78001e0078000080e80025
:100a5000100078000080fa00000006000200fa0092
:100a6000000f78001e00780064004000100078003d
:100a70000080fa00000006000200fa00000f780073
:100a80001e0078006e004000100078000080fa0020
:100a9000000006000200fa00000f78001e00780037
:100aa0006c004000100078000080fa000000060092
:100ab0000200fa00000f78001e0078006800400075
:100ac000100078000080fa00000006000200fa0022
:100ad000000f78001e0078007000400010007800c1
:100ae0000080fa00000006000200fa00000f780003
:100af0001e007800100078000080fa000000060058
:100b00000800fa00e6004700800878006600470009
:100b100010007800d8ff0700000f7800660047003b
:100b200010007800dbff0700800078000e80e800ee
:100b3000010878000e80e80010007800c800dd0091
:100b40006400470001087800640047001000780046
:100b50009e00700066004700100078006a004000a8
:100b60000108780066004700100078006a00400025
:100b7000100078000080fa00000006000800fa006b
:100b8000640147000009780066004700010878000a
:100b90000782a90066004700100078006cff07007c
:100ba000000f78006600470010007800abff0700d8
:100bb0000000e00003003200e30f5000110032009b
:100bc0002000370064004700100078000001eb00af
:100bd0009e00780065ff07008e80e800804878005e
:100be0000e80e800104078001800070066004700fb
:100bf00010007800310020006400400001087800f7
:100c00001000370064004700100078001200200038
:100c10009e00780055ff07008e80e800804878002d
:100c20000e80e800104078000800070066004700ca
:100c3000100078008000eb0064004000010878009c
:100c4000000000000080fa00000006000200fa0028
:100c5000004f7800020037001e80fb001010880053
:100c60004110800000082000008060000000e000cb
:100c700004003a0040108000610060000000e000c5
:100c8000f5ff32000080fa00000006000400fa00c0
:100c9000000f78000e80e800010878001e00780040
:100ca00091ff0700e10f500007003200e20f5000f3
:100cb0000a003a001e0078006e0040008e80e800b6
:100cc00011087800050037001e0078006c00400015
:100cd0008e80e80011087800000000000080fa0013
:100ce000000006000a00fa000e82e800000a780000
:100cf0006400470001087800660047000208780099
:100d000068004700030878004110800000022000be
:100d1000008060000000e0005d0032000e80e8000e
:100d2000100078008000eb006800400001087800a7
:100d300040108000640060000000e00053003a00b2
:100d40000e80e800100078000080e80010007800b5
:100d5000e20f500014003a000e80e8001000780006
:100d6000210020000108780066004700900078000c
:100d70000e80e80010007800c4ff07000e80e80035
:100d8000100078005eff07008000780066004700d2
:100d9000010878000e80e8001000780011002000a3
:100da0000080e800010878000e80e800100078005c
:100db0000080e80010007800e10f500012003a00b7
:100dc0000e80e80010007800110020000108780073
:100dd00066004700900078000e80e8001000780060
:100de000aaff07000e80e800100078000080e800ed
:100df000100078008000e8000e80e8001000780005
:100e00000080e800010878000e80e80010007800fb
:100e10000080e800100078000000e0001b003a00ad
:100e20006600470010007800e40f50000800320010
:100e3000e70f500015003a000e80e800100078001f
:100e4000110020000080e800010878000f00370042
:100e5000950007000100370000000000680047000f
:100e60001000780090007800309f2000808f5000a4
:100e7000f9ff360068004700100078008000eb00a2
:100e80000108780095a0a900000000004010800033
:100e90004110800000022000008060000000e0009f
:100ea00024003a000e80e8001000780000ff0700e0
:100eb0008000e8000e80e800100078006800400024
:100ec0000108780008c2a9000782a900001080006c
:100ed000000f78000400370008c2a9000782a900ab
:100ee00000108000000f7800401080006200600059
:100ef0000000e000f8ff3a0040108000640060004d
:100f00000000e000060032000e80e800900078004b
:100f1000640047001000780018ff07000500370044
:100f20000e80e800100078008000eb000080e800f0
:100f3000010878004110800000042000008060005b
:100f40000000e0000100320008c2a9000080fa00a1
:100f5000000006000000fa00c842a900c862a9000b
:100f6000ca62a900c882a900ca82a800c002a8005b
:100f70001136800000fe2f00008060002001b300c9
:100f80001036880040a7a900213a8000f0f32f0016
:100f900000806000203a8800213a800000fe2f0087
:100fa00000806000203a8800313a800000e02f0085
:100fb00000806000e001b300303a88000080eb0060
:100fc000601988002c03a9002023ef002223ef00e2
:100fd0002423ef0001198000000e200001007000a2
:100fe000001988002043a8002143a9002063a9001c
:100ff0002183a80011198000f0ff2100008060000b
:101000001019880011198000f0cf2f0000806000b7
:101010000080a000101988001119800030fc2f00fa
:10102000008060001019880025e3a90030c0b300db
:1010300024e3b70021198000f00f2e0080806000ab
:1010400000a0200001007000201988002823ef0074
:101050004119800000fe2f000080600040198800c8
:1010600028e3a9002623ef002603a90031198000f8
:1010700090ff2f00008060003019880085a0a90033
:1010800051058000f0f82f008080600000062000ed
:10109000010070005005880021e3a80095a0a90078
:1010a0000080fa00000006000400fa0011e1a80028
:1010b000ca62a8000000000000000000000000005c
:1010c000000000000000000000000000ca82a9002b
:1010d0000000eb00000f7800060037000000000061
:1010e0000000000000000000000000000000000000
:1010f0001e0fe8001e007800e30f5000f7ff3400d9
:10110000ca82a8008000eb000e80e8000108780089
:1011100006003700000000000e80e8001000780094
:101120008000e8000e80e800010878000e80e800ea
:1011300010007800e40f5000f6ff3400ca62a900e6
:1011400095a0a8000080fa00000006000c00fa003c
:1011500064024700000a7800660047000108780032
:10116000680047000288be00e40047000e80e800e7
:10117000010878000000eb00000f78002100370024
:101180001e00780000004000e60047009100780053
:101190000081400064004700900078001e00780045
:1011a00000004000008040001000780000f0a70020
:1011b0000000ea000000ea004f00de0080407800f6
:1011c0000280e80001487800640047009000780041
:1011d0001e007800000040000080400010007800f1
:1011e0001e00780000004000e600470091007800f3
:1011f000008040008040eb000000e80001487800db
:101200001e0fe8001e0078006101b9006800470069
:101210001000be00800f5100818f5900d8ff3900a7
:101220000080fa00000006000000fa0049ff0700f5
:101230006e00070037000700b1fd0700404088003e
:1012400099ff0700010037000000000031408000d6
:10125000309f2000808f5000fbff36000628ef00f3
:1012600095a0a900f6ff37000000fa00113a8000af
:10127000000027008080600000002300808f500065
:1012800022003200113a8000f08f2f008080600031
:101290000030200001007000103a880000000000bb
:1012a000113a800000022000008060000000e00091
:1012b000fbff32003200200080072000a10920003f
:1012c0003374200080497800814978008249780091
:1012d000120020006004200071052000237420000b
:1012e0008049780081497800824978000100370000
:1012f0004207a800113a80000000270080806000ab
:1013000000002300808f5000f9ff3a000080fa00af
:10131000000006000000fa00210c800080ff2f0072
:1013200000806000200c8800210c800080ff2f00ce
:10133000008060000010a000200c8800210c8000bc
:1013400080ff2f0000806000200c88008461a900cd
:1013500050002000100c880021058000f08f2f0025
:10136000008060000090a00020058800210c800013
:1013700080ff2f00008060003000b300200c880048
:101380008440a9009440a9000080fa0000000600f3
:020000040000fa
:1013900016080000f813000000000000000800001c
:1013a0000c000000000000000c0800000800000015
:1013b000020000000608fc001b16080001000000e7
:1013c000140800000200000002000000bb00000042
:1013d0000e1c00000400000000000000121c0000b1
:0c13e000020000000000000000000000ff
:020000040000fa
:1013ec000000fa0011e1a9001021a90010c1a90008
:1013fc0081088000f0fc2f000080600080088800cd
:10140c000621ef00a0002000600888003105800054
:10141c00f0ff28000080600000c0a00030058800ac
:10142c0084e0a90094e0a9000080fa000000060006
:10143c000000fa00011c8000f0fc2f00008060000e
:10144c00001c8800011c8000c0ff2f000080600081
:10145c000010a000001c880000302000401c8800f8
:10146c008a23ef00d0002000101c88008480a90083
:10147c009480a9000080fa00000006000000fa0029
:10148c000080fa00000006000000fa000080fa005c
:04149c000000060046
:020000040000fa
:0200000401f009
:04000000ffffff00ff
:020000040000fa
:0200000401f009
:04000400ffffff00fb
:020000040000fa
:0200000401f009
:04000800ffffff00f7
:020000040000fa
:0200000401f009
:04000c00830000006d
:020000040000fa
:0200000401f009
:040010008500000067
:020000040000fa
:0200000401f009
:040014005f00000089
:020000040000fa
:0200000401f009
:04001800f7000000ed
:020000040000fa
:0200000401f009
:04001c00dfff000002
:00000001FF
