:020000040000fa
:080000000002040000000000f2
:020000040000fa
:040008004c030000a5
:020000040000fa
:04000c001c030000d1
:020000040000fa
:0400100022030000c7
:020000040000fa
:0400140028030000bd
:020000040000fa
:040018002e030000b3
:020000040000fa
:04001c004c03000091
:020000040000fa
:040020004c0300008d
:020000040000fa
:040024004c03000089
:020000040000fa
:040028004c03000085
:020000040000fa
:04002c004c03000081
:020000040000fa
:040030004c0300007d
:020000040000fa
:040034004c03000079
:020000040000fa
:040038004c03000075
:020000040000fa
:04003c004c03000071
:020000040000fa
:040040004c0300006d
:020000040000fa
:04004400c8020000ee
:020000040000fa
:040048004c03000065
:020000040000fa
:04004c004c03000061
:020000040000fa
:040050004c0300005d
:020000040000fa
:040054004c03000059
:020000040000fa
:040058004c03000055
:020000040000fa
:04005c00ec020000b2
:020000040000fa
:040060004c0300004d
:020000040000fa
:040064004c03000049
:020000040000fa
:040068004c03000045
:020000040000fa
:04006c004c03000041
:020000040000fa
:040070004c0300003d
:020000040000fa
:040074004c03000039
:020000040000fa
:040078004c03000035
:020000040000fa
:04007c004c03000031
:020000040000fa
:040080004c0300002d
:020000040000fa
:040084004c03000029
:020000040000fa
:040088004c03000025
:020000040000fa
:04008c004c03000021
:020000040000fa
:040090004c0300001d
:020000040000fa
:040094004c03000019
:020000040000fa
:040098004c03000015
:020000040000fa
:04009c004c03000011
:020000040000fa
:0400a0004c0300000d
:020000040000fa
:0400a4004c03000009
:020000040000fa
:0400a8004c03000005
:020000040000fa
:0400ac004c03000001
:020000040000fa
:0400b0004c030000fd
:020000040000fa
:0400b4004c030000f9
:020000040000fa
:0400b8004c030000f5
:020000040000fa
:0400bc004c030000f1
:020000040000fa
:0400c0004c030000ed
:020000040000fa
:0400c4004c030000e9
:020000040000fa
:0400c8004c030000e5
:020000040000fa
:0400cc004c030000e1
:020000040000fa
:0400d0004c030000dd
:020000040000fa
:0400d4004c030000d9
:020000040000fa
:0400d8004c030000d5
:020000040000fa
:0400dc004c030000d1
:020000040000fa
:0400e0004c030000cd
:020000040000fa
:0400e4004c030000c9
:020000040000fa
:0400e8004c030000c5
:020000040000fa
:0400ec004c030000c1
:020000040000fa
:0400f0004c030000bd
:020000040000fa
:0400f4004c030000b9
:020000040000fa
:0400f8004c030000b5
:020000040000fa
:0400fc004c030000b1
:020000040000fa
:040100004c030000ac
:020000040000fa
:040104004c030000a8
:020000040000fa
:040108004c030000a4
:020000040000fa
:04010c004c030000a0
:020000040000fa
:040110004c0300009c
:020000040000fa
:040114004c03000098
:020000040000fa
:040118004c03000094
:020000040000fa
:04011c004c03000090
:020000040000fa
:040120004c0300008c
:020000040000fa
:040124004c03000088
:020000040000fa
:040128004c03000084
:020000040000fa
:04012c004c03000080
:020000040000fa
:040130004c0300007c
:020000040000fa
:040134004c03000078
:020000040000fa
:040138004c03000074
:020000040000fa
:04013c004c03000070
:020000040000fa
:040140004c0300006c
:020000040000fa
:040144004c03000068
:020000040000fa
:040148004c03000064
:020000040000fa
:04014c004c03000060
:020000040000fa
:040150004c0300005c
:020000040000fa
:040154004c03000058
:020000040000fa
:040158004c03000054
:020000040000fa
:04015c004c03000050
:020000040000fa
:040160004c0300004c
:020000040000fa
:040164004c03000048
:020000040000fa
:040208004c030000a3
:020000040000fa
:04020c0034030000b7
:020000040000fa
:040210003a030000ad
:020000040000fa
:0402140040030000a3
:020000040000fa
:040218004603000099
:020000040000fa
:04021c004c0300008f
:020000040000fa
:040220004c0300008b
:020000040000fa
:040224004c03000087
:020000040000fa
:040228004c03000083
:020000040000fa
:04022c004c0300007f
:020000040000fa
:040230004c0300007b
:020000040000fa
:040234004c03000077
:020000040000fa
:040238004c03000073
:020000040000fa
:04023c004c0300006f
:020000040000fa
:040240004c0300006b
:020000040000fa
:04024400c8020000ec
:020000040000fa
:040248004c03000063
:020000040000fa
:04024c004c0300005f
:020000040000fa
:040250004c0300005b
:020000040000fa
:040254004c03000057
:020000040000fa
:040258004c03000053
:020000040000fa
:04025c00ec020000b0
:020000040000fa
:040260004c0300004b
:020000040000fa
:040264004c03000047
:020000040000fa
:040268004c03000043
:020000040000fa
:04026c004c0300003f
:020000040000fa
:040270004c0300003b
:020000040000fa
:040274004c03000037
:020000040000fa
:040278004c03000033
:020000040000fa
:04027c004c0300002f
:020000040000fa
:040280004c0300002b
:020000040000fa
:040284004c03000027
:020000040000fa
:040288004c03000023
:020000040000fa
:04028c004c0300001f
:020000040000fa
:040290004c0300001b
:020000040000fa
:040294004c03000017
:020000040000fa
:040298004c03000013
:020000040000fa
:04029c004c0300000f
:020000040000fa
:0402a0004c0300000b
:020000040000fa
:0402a4004c03000007
:020000040000fa
:0402a8004c03000003
:020000040000fa
:0402ac004c030000ff
:020000040000fa
:0402b0004c030000fb
:020000040000fa
:0402b4004c030000f7
:020000040000fa
:0402b8004c030000f3
:020000040000fa
:0402bc004c030000ef
:020000040000fa
:0402c0004c030000eb
:020000040000fa
:0402c4004c030000e7
:020000040000fa
:0402c8004c030000e3
:020000040000fa
:0402cc004c030000df
:020000040000fa
:0402d0004c030000db
:020000040000fa
:0402d4004c030000d7
:020000040000fa
:0402d8004c030000d3
:020000040000fa
:0402dc004c030000cf
:020000040000fa
:0402e0004c030000cb
:020000040000fa
:0402e4004c030000c7
:020000040000fa
:0402e8004c030000c3
:020000040000fa
:0402ec004c030000bf
:020000040000fa
:0402f0004c030000bb
:020000040000fa
:0402f4004c030000b7
:020000040000fa
:0402f8004c030000b3
:020000040000fa
:0402fc004c030000af
:020000040000fa
:040300004c030000aa
:020000040000fa
:040304004c030000a6
:020000040000fa
:040308004c030000a2
:020000040000fa
:04030c004c0300009e
:020000040000fa
:040310004c0300009a
:020000040000fa
:040314004c03000096
:020000040000fa
:040318004c03000092
:020000040000fa
:04031c004c0300008e
:020000040000fa
:040320004c0300008a
:020000040000fa
:040324004c03000086
:020000040000fa
:040328004c03000082
:020000040000fa
:04032c004c0300007e
:020000040000fa
:040330004c0300007a
:020000040000fa
:040334004c03000076
:020000040000fa
:040338004c03000072
:020000040000fa
:04033c004c0300006e
:020000040000fa
:040340004c0300006a
:020000040000fa
:040344004c03000066
:020000040000fa
:040348004c03000062
:020000040000fa
:04034c004c0300005e
:020000040000fa
:040350004c0300005a
:020000040000fa
:040354004c03000056
:020000040000fa
:040358004c03000052
:020000040000fa
:04035c004c0300004e
:020000040000fa
:040360004c0300004a
:020000040000fa
:040364004c03000046
:020000040000fa
:100400008f7422000e7f22000e0188000000000081
:10041000000020000000e000020032000001200087
:1004200020028800140007009d0007000000e00083
:1004300003003a00405e2000010020000200370067
:100440000000200001002000810f70000100320038
:1004500014000700000020000000e000020032004d
:100460000000020000000000c804020000000000bc
:100470000040da000000fe004440a9000000200017
:100480000000e0000300320000002000a00188000e
:100490004440a800000006008a1f78008b1f7800e7
:1004a0000000060091018800800478000000eb0045
:1004b0001a003700e284440032a0b4009905ba0063
:1004c000e284440032a0b4009906ba00e2844400f9
:1004d00032a0b4000006eb00476fde00fd07b2005b
:1004e000636ce10003003a00ebff07000000eb0043
:1004f0000a003700606ce10004003a00005deb0088
:100500008b05e900fdff3e00040037006168e10053
:10051000010032000086eb000b00070019c7ba008b
:100520001905ba000e04e00003003a000a00e000da
:10053000e0ff3a0000000600fe07b2009e018800be
:100540008a047800f5ff3700395dba008b05e900b1
:100550000c003200295dba008b05e900080032006a
:100560000c00e00003003a00e284440032a0b40032
:10057000f5ff370019ddba008b05e900faff3a00f4
:100580008904e800e184440032a0b40000000600c1
:10059000809fbe000000fa00501680004200de007e
:1005a0006140600000c0ea00614060000080fb0024
:1005b000610060004200dd00511680000120a100b2
:1005c000010070005016880084e0a9000080fa0045
:1005d0004f00be0000400600809fbe00821f7800d2
:1005e0000000fa0011408000007d2000808f500044
:1005f0000a003e0010408000021880008000400089
:1006000080802000008040000208780010408000b8
:100610000000e80010408800020037003027210069
:100620002040880085a0a9000080fa004f017800d2
:100630004f00be00004006000000fa008020a90024
:10064000ffff37000000fa008060a900ffff3700bd
:100650000000fa008040a900ffff37000000fa0008
:100660008080a900ffff37000000fa008020a90069
:10067000ffff37000000fa008060a900ffff37008d
:100680000000fa008040a900ffff37000000fa00d8
:100690008080a900ffff37000000fa00ffff37004d
:0406a0000000050051
:020000040000fa
:1006a4000000fa00c842a900c862a900ca62a900f1
:1006b400c882a900ca82a800c002a800113680001e
:1006c40000fe2f00008060002001b3001036880077
:1006d40040a7a900213a8000f0f32f0000806000b9
:1006e400203a8800213a800000fe2f00008060003c
:1006f400203a8800313a800000e02f00008060003a
:10070400e001b300303a88000080eb0060198800f3
:100714002c03a9002023ef002223ef002423ef0061
:1007240001198000000e20000100700000198800eb
:100734002043a8002143a9002063a9002183a80025
:1007440011198000f0ff210000806000101988005a
:1007540011198000f0cf2f00008060000080a000fd
:10076400101988001119800030fc2f0000806000ef
:100774001019880025e3a90030c0b30024e3b700b2
:1007840021198000f00f2e008080600000a020005e
:1007940001007000201988002823ef00411980000f
:1007a40000fe2f00008060004019880028e3a900a3
:1007b4002623ef002603a9003119800090ff2f00a3
:1007c400008060003019880085a0a90051058000d0
:1007d400f0f82f0080806000000620000100700007
:1007e4005005880021e3a80095a0a9000080fa0024
:1007f400000006000400fa0011e1a800ca62a80083
:1008040000000000000000000000000000000000e4
:10081400000000000000000020002000304088009c
:10082400ca82a9000000eb00000f78000600370020
:1008340000000000000000000000000000000000b4
:10084400000000001e0fe8001e007800e30f5000b7
:10085400f7ff3400ca82a8008000eb000e80e80095
:100864000108780006003700000000000e80e80050
:10087400100078008000e8000e80e800010878008d
:100884000e80e80010007800e40f5000f6ff3400fa
:10089400ca62a90095a0a8000080fa000000060022
:1008a4000200fa00000f78000080fa000000060041
:1008b4000c00fa0064024700000a78006600470052
:1008c40001087800680047000288be00e400470081
:1008d4000e80e800010878000000eb00000f7800ab
:1008e400210037001e00780000004000e6004700a9
:1008f4009100780000814000640047009000780077
:100904001e007800000040000080400010007800c5
:1009140000f0a7000000ea000000ea004f00de003b
:10092400804078000280e8000148780064004700b5
:10093400900078001e007800000040000080400015
:10094400100078001e00780000004000e600470018
:1009540091007800008040008040eb000000e80037
:10096400014878001e0fe8001e0078006101b900fc
:10097400680047001000be00800f5100818f5900ad
:10098400d8ff39000080fa00000006000200fa00d7
:1009940010002000000f780041ff070076000700d8
:1009a4006100070041000700150007001e007800e1
:1009b4000000e000fdff32001000200030408800fd
:1009c4008cff070001003700000000001140800088
:1009d400309f2000808f5000fbff36000228ef007c
:1009e40095a0a900027d200003002000817a210047
:1009f40080802000aeff070000000000ebff3700fe
:100a04000000fa00113a8000000027008080600096
:100a140000002300808f500022003200113a800031
:100a2400f08f2f00808060000030200001007000f3
:100a3400103a880000000000113a800000022000f3
:100a4400008060000000e000fbff32003200200064
:100a540080072000a1092000337420008049780019
:100a64008149780082497800120020006004200047
:100a740071052000237420008049780081497800a2
:100a840082497800010037004207a800113a80002b
:100a9400000027008080600000002300808f500049
:100aa400f9ff3a000080fa00000006000000fa0096
:100ab400210c800080ff2f0000806000200c880043
:100ac400210c800080ff2f00008060000010a00037
:100ad400200c8800210c800080ff2f000080600023
:100ae400200c88008461a90050002000100c8800ac
:100af40021058000f08f2f00008060000090a0008e
:100b040020058800210c800080ff2f0000806000f9
:100b14003000b300200c88008440a9009440a90050
:100b24000080fa00000006000000fa0011e1a800ad
:100b34001021a90010c1a900810880000003200031
:100b440001007000800888000621ef00a00020004a
:100b54006008880031058000f0ff280000806000f4
:100b640000c0a0003005880084e0a90094e0a8003b
:100b74000080fa00000006000000fa00011c80005a
:100b8400f0fc2f0000806000001c8800011c800025
:100b9400c0ff2f00008060000010a000001c88002f
:100ba40000302000401c88008a23ef00d000200081
:100bb400101c88008480a9009480a9000080fa0099
:040bc4000000060027
:020000040000fa
:100bc80008080000401f00000000000000080000a6
:100bd80006000000000000000608000002000000f7
:080be800000000000000000005
:020000040000fa
:100bf0000000fa000080fa00000006000000fa0081
:080c00000080fa00000006006c
:020000040000fa
:0200000401f009
:04000000ffffff00ff
:020000040000fa
:0200000401f009
:04000400ffffff00fb
:020000040000fa
:0200000401f009
:04000800ffffff00f7
:020000040000fa
:0200000401f009
:04000c00830000006d
:020000040000fa
:0200000401f009
:040010008500000067
:020000040000fa
:0200000401f009
:040014005f00000089
:020000040000fa
:0200000401f009
:04001800f7000000ed
:020000040000fa
:0200000401f009
:04001c00dfff000002
:00000001FF
