:020000040000fa
:080000000002040000000000f2
:020000040000fa
:04000800660300008b
:020000040000fa
:04000c0036030000b7
:020000040000fa
:040010003c030000ad
:020000040000fa
:0400140042030000a3
:020000040000fa
:040018004803000099
:020000040000fa
:04001c006603000077
:020000040000fa
:040020006603000073
:020000040000fa
:04002400660300006f
:020000040000fa
:04002800660300006b
:020000040000fa
:04002c006603000067
:020000040000fa
:040030006603000063
:020000040000fa
:04003400660300005f
:020000040000fa
:04003800660300005b
:020000040000fa
:04003c006603000057
:020000040000fa
:040040006603000053
:020000040000fa
:04004400cc020000ea
:020000040000fa
:04004800660300004b
:020000040000fa
:04004c006603000047
:020000040000fa
:040050006603000043
:020000040000fa
:04005400660300003f
:020000040000fa
:04005800660300003b
:020000040000fa
:04005c00d4020000ca
:020000040000fa
:040060006603000033
:020000040000fa
:04006400660300002f
:020000040000fa
:04006800040300008d
:020000040000fa
:04006c006603000027
:020000040000fa
:040070006603000023
:020000040000fa
:04007400660300001f
:020000040000fa
:04007800660300001b
:020000040000fa
:04007c006603000017
:020000040000fa
:040080006603000013
:020000040000fa
:04008400660300000f
:020000040000fa
:04008800660300000b
:020000040000fa
:04008c006603000007
:020000040000fa
:040090006603000003
:020000040000fa
:0400940066030000ff
:020000040000fa
:0400980066030000fb
:020000040000fa
:04009c0066030000f7
:020000040000fa
:0400a00066030000f3
:020000040000fa
:0400a40066030000ef
:020000040000fa
:0400a80066030000eb
:020000040000fa
:0400ac0066030000e7
:020000040000fa
:0400b00066030000e3
:020000040000fa
:0400b40066030000df
:020000040000fa
:0400b80066030000db
:020000040000fa
:0400bc0066030000d7
:020000040000fa
:0400c00066030000d3
:020000040000fa
:0400c40066030000cf
:020000040000fa
:0400c80066030000cb
:020000040000fa
:0400cc0066030000c7
:020000040000fa
:0400d00066030000c3
:020000040000fa
:0400d40066030000bf
:020000040000fa
:0400d80066030000bb
:020000040000fa
:0400dc0066030000b7
:020000040000fa
:0400e00066030000b3
:020000040000fa
:0400e40066030000af
:020000040000fa
:0400e80066030000ab
:020000040000fa
:0400ec0066030000a7
:020000040000fa
:0400f00066030000a3
:020000040000fa
:0400f400660300009f
:020000040000fa
:0400f800660300009b
:020000040000fa
:0400fc006603000097
:020000040000fa
:040100006603000092
:020000040000fa
:04010400660300008e
:020000040000fa
:04010800660300008a
:020000040000fa
:04010c006603000086
:020000040000fa
:040110006603000082
:020000040000fa
:04011400660300007e
:020000040000fa
:04011800660300007a
:020000040000fa
:04011c006603000076
:020000040000fa
:040120006603000072
:020000040000fa
:04012400660300006e
:020000040000fa
:04012800660300006a
:020000040000fa
:04012c006603000066
:020000040000fa
:040130006603000062
:020000040000fa
:04013400660300005e
:020000040000fa
:04013800660300005a
:020000040000fa
:04013c006603000056
:020000040000fa
:040140006603000052
:020000040000fa
:04014400660300004e
:020000040000fa
:04014800660300004a
:020000040000fa
:04014c006603000046
:020000040000fa
:040150006603000042
:020000040000fa
:04015400660300003e
:020000040000fa
:04015800660300003a
:020000040000fa
:04015c006603000036
:020000040000fa
:040160006603000032
:020000040000fa
:04016400660300002e
:020000040000fa
:040208006603000089
:020000040000fa
:04020c004e0300009d
:020000040000fa
:040210005403000093
:020000040000fa
:040214005a03000089
:020000040000fa
:04021800600300007f
:020000040000fa
:04021c006603000075
:020000040000fa
:040220006603000071
:020000040000fa
:04022400660300006d
:020000040000fa
:040228006603000069
:020000040000fa
:04022c006603000065
:020000040000fa
:040230006603000061
:020000040000fa
:04023400660300005d
:020000040000fa
:040238006603000059
:020000040000fa
:04023c006603000055
:020000040000fa
:040240006603000051
:020000040000fa
:04024400cc020000e8
:020000040000fa
:040248006603000049
:020000040000fa
:04024c006603000045
:020000040000fa
:040250006603000041
:020000040000fa
:04025400660300003d
:020000040000fa
:040258006603000039
:020000040000fa
:04025c00d4020000c8
:020000040000fa
:040260006603000031
:020000040000fa
:04026400660300002d
:020000040000fa
:04026800040300008b
:020000040000fa
:04026c006603000025
:020000040000fa
:040270006603000021
:020000040000fa
:04027400660300001d
:020000040000fa
:040278006603000019
:020000040000fa
:04027c006603000015
:020000040000fa
:040280006603000011
:020000040000fa
:04028400660300000d
:020000040000fa
:040288006603000009
:020000040000fa
:04028c006603000005
:020000040000fa
:040290006603000001
:020000040000fa
:0402940066030000fd
:020000040000fa
:0402980066030000f9
:020000040000fa
:04029c0066030000f5
:020000040000fa
:0402a00066030000f1
:020000040000fa
:0402a40066030000ed
:020000040000fa
:0402a80066030000e9
:020000040000fa
:0402ac0066030000e5
:020000040000fa
:0402b00066030000e1
:020000040000fa
:0402b40066030000dd
:020000040000fa
:0402b80066030000d9
:020000040000fa
:0402bc0066030000d5
:020000040000fa
:0402c00066030000d1
:020000040000fa
:0402c40066030000cd
:020000040000fa
:0402c80066030000c9
:020000040000fa
:0402cc0066030000c5
:020000040000fa
:0402d00066030000c1
:020000040000fa
:0402d40066030000bd
:020000040000fa
:0402d80066030000b9
:020000040000fa
:0402dc0066030000b5
:020000040000fa
:0402e00066030000b1
:020000040000fa
:0402e40066030000ad
:020000040000fa
:0402e80066030000a9
:020000040000fa
:0402ec0066030000a5
:020000040000fa
:0402f00066030000a1
:020000040000fa
:0402f400660300009d
:020000040000fa
:0402f8006603000099
:020000040000fa
:0402fc006603000095
:020000040000fa
:040300006603000090
:020000040000fa
:04030400660300008c
:020000040000fa
:040308006603000088
:020000040000fa
:04030c006603000084
:020000040000fa
:040310006603000080
:020000040000fa
:04031400660300007c
:020000040000fa
:040318006603000078
:020000040000fa
:04031c006603000074
:020000040000fa
:040320006603000070
:020000040000fa
:04032400660300006c
:020000040000fa
:040328006603000068
:020000040000fa
:04032c006603000064
:020000040000fa
:040330006603000060
:020000040000fa
:04033400660300005c
:020000040000fa
:040338006603000058
:020000040000fa
:04033c006603000054
:020000040000fa
:040340006603000050
:020000040000fa
:04034400660300004c
:020000040000fa
:040348006603000048
:020000040000fa
:04034c006603000044
:020000040000fa
:040350006603000040
:020000040000fa
:04035400660300003c
:020000040000fa
:040358006603000038
:020000040000fa
:04035c006603000034
:020000040000fa
:040360006603000030
:020000040000fa
:04036400660300002c
:020000040000fa
:100400004fc021000e7f22000e0188000000000076
:10041000000020000000e000020032000001200087
:100420002002880014000700cc0007000000e00054
:1004300003003a0080a320000100200002003700e2
:100440000000200001002000810f70000100320038
:1004500014000700000020000000e000020032004d
:1004600000000200000000008a09020000000000f5
:100470000040da000000fe004440a9000000200017
:100480000000e0000300320000002000a00188000e
:100490004440a800000006008a1f78008b1f7800e7
:1004a0000000060091018800800478000000eb0045
:1004b0001a003700e284440032a0b4009905ba0063
:1004c000e284440032a0b4009906ba00e2844400f9
:1004d00032a0b4000006eb00476fde00fd07b2005b
:1004e000636ce10003003a00ebff07000000eb0043
:1004f0000a003700606ce10004003a00005deb0088
:100500008b05e900fdff3e00040037006168e10053
:10051000010032000086eb000b00070019c7ba008b
:100520001905ba000e04e00003003a000a00e000da
:10053000e0ff3a0000000600fe07b2009e018800be
:100540008a047800f5ff3700395dba008b05e900b1
:100550000c003200295dba008b05e900080032006a
:100560000c00e00003003a00e284440032a0b40032
:10057000f5ff370019ddba008b05e900faff3a00f4
:100580008904e800e184440032a0b40000000600c1
:1005900000000400000000000000fa0084e0a90050
:1005a0000080fa0000400600809fbe00821f780095
:1005b0000000fa0071408000309f2000808f5000c2
:1005c0000a003e0070408000021880008000400059
:1005d0008081200000804000020878007040800088
:1005e0000000e8007040880002003700302721003a
:1005f0008040880085a0a9000080fa004f017800a3
:100600004f00be00004006003600f800809fbe008c
:10061000829fbe00849fbe00869fbe000000fa003d
:10062000a0408000e10f500004003c00a04080008a
:100630000000e800a040880003003700414080002f
:1006400050408000300207000782a9008600a90000
:100650000080fa004f03be004f02be004f01be00f3
:100660004f00be003600f900004006000000fa000e
:100670008020a900ffff37000000fa008060a90079
:10068000ffff37000000fa008040a900ffff37009d
:100690000000fa008080a900ffff37000000fa0088
:1006a0008020a900ffff37000000fa008060a90049
:1006b000ffff37000000fa008040a900ffff37006d
:1006c0000000fa008080a900ffff37000000fa0058
:1006d000ffff3700889fbe008004780010e0800094
:1006e0000000e00005003a000000eb000e000700eb
:1006f0000084eb000000e0000800350018e08000f6
:100700000900e0000500320009004400060007006f
:100710000000e00001003d000084eb0008007800cc
:100720004f04be0000000600800078000100e000d9
:1007300003003a000000200010e0880000000500df
:100740000080eb0002002000828f500002003e007b
:1007500011e088000000eb0000000600000005002a
:100760000200fa00889fbe000000e00001003a008d
:10077000100020000004e8000800a10000e0800054
:100780000000e8000000a10000e088000000200058
:100790000000e00009003200e10f540001003e00bb
:1007a000280020000800780015fe0700290020001e
:1007b0000000e00022003a00010037008004eb0056
:1007c00000e08000f1df800000805000800f5400c6
:1007d0001100360008804400d0bf9f00668057009b
:1007e0001a000700800078000000eb000100e00024
:1007f000130032000100e8000000a100f1df8000da
:10080000810f50000100320000e08800dfb897003f
:1008100001004000f0df880001e080000900e000f6
:10082000030032000100780008187800010037004a
:1008300001007800088444008880400001e08800be
:100840004f04be000080fa0000000600900078000f
:100850000000eb000100e000050035000100780019
:100860009cff0700e10f400001003a000000eb0090
:04087000000006007e
:020000040000fa
:100874000200fa000000eb00000f78000622ef00ef
:1008840007e2a90060022000201088000822ef007f
:1008940007a2a80007e2a80001108000010f780059
:1008a4000080fa00000006000200fa0000c0eb001d
:1008b400004f7800000000003010800061006000ec
:1008c4000000e000fcff3a0030108000640060008b
:1008d4000000e000f8ff3a0030108000680060007b
:1008e4000000e000f4ff3a00301080006200600075
:1008f4000000e000f0ff3a0030108000700060005b
:100904000000e000ecff3a004110800000002400e9
:10091400008060000000e000e7ff3a001e80fb005a
:100924000000ea004f00de00004078001e4fe9009e
:100934000004e000e0ff3a000080fa000000060036
:100944000000fa00d8ff07000602a800411080004a
:1009540000402000008060000000e000020032003f
:100964000000eb0002003700cfff0700100020005a
:100974000080fa00000006000200fa000000eb000c
:10098400000f7800c8ff07000642a80009003700de
:1009940010c0b300210320001e017800810f510014
:1009a40001003c000040eb001e0fe8000004e000e2
:1009b40005003a0030108000640060000000e00090
:1009c400f3ff3a0001003700000000000662a900ae
:1009d40008e2a9000942a900b3ff07000080fa0059
:1009e400000006000200fa00004f78001e80fb00a1
:1009f4001010880041108000000820000080600072
:100a04000000e000020032000000eb000f0037009d
:100a140000000000411080000000240000806000fd
:100a24000000e000fbff3a0041108000004020007d
:100a3400008060000000e000020032000000eb00d3
:100a44000200370098ff0700100020000080fa0021
:100a5400000006000a00fa0064024700004a780019
:100a640066004700010878006800470002487800e3
:100a740069004700034878008040eb000e00e8005e
:100a8400014878008040eb000e80e80001487800bf
:100a94000040eb00004f780010003700a8ff07006b
:100aa400690047001040780000404000cdff070077
:100ab4007dff0700411080000000280000806000d6
:100ac4000000e00004003a0011c0b3000e00e8008a
:100ad40001487800050037001e4fe80030c6b30017
:100ae4009e40780080cf5000ecff36000e00e800f6
:100af400104078000004e00002003a000000eb001f
:100b04005e0037008040eb000e00e80001487800ea
:100b14006400470010407800b2ff070041108000d5
:100b240000002800008060000000e00002003200a5
:100b34000000eb00510037008040eb0063004700e9
:100b440001487800160037007dff07006900470060
:100b5400104078000080fb00000040000040780056
:100b64000004a0009fff070041108000000028003f
:100b7400008060000000e00004003a0011c0b300ef
:100b84000e00e800014878000a00370063004700bf
:100b9400104078008040e800630047000148780076
:100ba400630047009040780030c6b30080cf500007
:100bb400e5ff36000e00e800104078000004e00075
:100bc40002003a000000eb002c0037000040eb006c
:100bd400004f78002100370033ff07000662a800a9
:100be4000000000030108000680060000000e00099
:100bf400fcff3a002cff070008c2a9001e80fb007e
:100c0400e600470091007800008040000110800059
:100c140081407800014878001e80fb008000e800d5
:100c240068004700104078000080fb00808f50006f
:100c340004003a0006a2a8000682a8004eff07009e
:100c44000200370006a2a9000682a80011c0b30062
:100c54000e80e800014878001e4fe8006800470055
:100c6400104078009e40780080cf5000daff3900b1
:100c74000e80e800104078000080fb000080fa003d
:100c8400000006000a00fa0064024700004a7800e7
:100c940066004700010878006800470002487800b1
:100ca40069004700034878008040eb000e00e8002c
:100cb400014878000040eb00004f78001000370036
:100cc4001fff070069004700104078000040400003
:100cd40044ff0700f4fe07004110800000002800d4
:100ce400008060000000e00004003a0011c0b3007e
:100cf4000e00e80001487800050037001e4fe800a8
:100d040030c6b3009e40780080cf5000ecff360020
:100d14000e00e800104078000004e00002003a00f1
:100d24000000eb0025003700640047001040780005
:100d34002cff0700dcfe07008040eb000e80e8007b
:100d44000148780015003700411080000000280099
:100d5400008060000000e0000e003a000e80e80011
:100d6400104078000080fb00e60047009100780006
:100d740000804000104078001aff07000e80e80051
:100d8400104078008040e8000e80e80001487800b8
:100d9400020037000000eb00080037000e80e80076
:100da40090407800680047001040780080cf5000e1
:100db400e5ff3900f0fe0700100020000080fa0073
:100dc400000006000400fa00004f78000e00e8005e
:100dd400014878000e80e800024878000e00e80020
:100de4008e80e8009141780012c0b3008000780042
:100df4001e407800a3ff07000080fa0000000600f0
:100e04000000fa0090002000201088000000280054
:100e14003010880007e2a800c902a800c922a8006f
:100e24000080fa00000006000200fa00004f78007b
:100e34000e00e800014878000602a8000000000047
:100e440030108000610060000000e000fcff3a0008
:100e54001e00fb00101088004110800000002800d4
:100e6400008060000000e000070032000642a80095
:100e74000000000030108000640060000000e0000a
:100e8400fcff3a00000000000080fa0000000600a9
:100e94000200fa00900020002010880000002800c2
:100ea4003010880006e2a80006c2a8000782a80045
:100eb4000722a8000222ef00100020005010880032
:100ec4009600a8008600a9009600a8008600a90044
:100ed4008000200021fe0700000f78001e0078002b
:100ee4000080fa00000006000200fa00000f7800fb
:100ef4001e00780066004000100078000080fa00b0
:100f0400000006000400fa00000f78000e80e800dc
:100f1400010878000782a9000e80e800100078001c
:100f2400100078000000e00014003a001e01780070
:100f34000e80e800100078000080e80010007800bf
:100f440080007800603e21000088b900000078002d
:100f54000000410000f0a7000000ea000000ea00e1
:100f64004f00de0000407800220007000e80e800f9
:100f74001000780011002000010878000e80e800bd
:100f84001000780010007800e10f500017003a00bc
:100f94000040eb00170007000e80e8001000780006
:100fa4008000eb00010878000e80e8001000780053
:100fb400cdff07008000e8000e80e80010007800f4
:100fc40066004000010878000e80e80010007800f8
:100fd4000080e800100078008000e8000e80e8003f
:100fe400100078000080e800010878000080fa0012
:100ff400000006000200fa00004f780002003700eb
:101004001e00fb0010108800411080000008200022
:10101400008060000000e00004003a0040108000fe
:10102400610060000000e000f5ff32000080fa007b
:10103400000006000000fa00c842a900c862a90026
:10104400ca62a900c882a900ca82a800c002a80076
:101054001136800000fe2f00008060002001b300e4
:101064001036880040a7a900213a8000f0f32f0031
:1010740000806000203a8800213a800000fe2f00a2
:1010840000806000203a8800313a800000e02f00a0
:1010940000806000e001b300303a88000080eb007b
:1010a400601988002c03a9002023ef002223ef00fd
:1010b4002423ef0001198000000e200001007000bd
:1010c400001988002043a8002143a9002063a90037
:1010d4002183a80011198000f0ff21000080600026
:1010e4001019880011198000f0cf2f0000806000d3
:1010f4000080a000101988001119800030fc2f0016
:10110400008060001019880025e3a90030c0b300f6
:1011140024e3b70021198000f00f2e0080806000c6
:1011240000a0200001007000201988002823ef008f
:101134004119800000fe2f000080600040198800e3
:1011440028e3a9002623ef002603a9003119800013
:1011540090ff2f00008060003019880085a0a9004e
:1011640051058000f0f82f00808060000006200008
:10117400010070005005880021e3a80095a0a90093
:101184000080fa00000006000400fa0011e1a80043
:10119400ca62a80000000000000000000000000077
:1011a40000000000000000000000000020002000fb
:1011b400b0408800ca82a9000000eb00000f78004c
:1011c40006003700000000000000000000000000de
:1011d40000000000000000001e0fe8001e00780060
:1011e400e30f5000f7ff3400ca82a8008000eb0030
:1011f4000e80e800010878000600370000000000b7
:101204000e80e800100078008000e8000e80e800fe
:10121400010878000e80e80010007800e40f500008
:10122400f6ff3400ca62a90095a0a8000080fa0065
:10123400000006000c00fa0064024700000a78006f
:101244006600470001087800680047000288be0075
:10125400e40047000e80e800010878000000eb007d
:10126400000f7800210037001e00780000004000c5
:10127400e6004700910078000081400064004700c8
:10128400900078001e0078000000400000804000bc
:101294001000780000f0a7000000ea000000ea0057
:1012a4004f00de00804078000280e80001487800aa
:1012b40064004700900078001e00780000004000a1
:1012c40000804000100078001e00780000004000fc
:1012d400e600470091007800008040008040eb0069
:1012e4000000e800014878001e0fe8001e007800a6
:1012f4006101b900680047001000be00800f510072
:10130400818f5900d8ff39000080fa0000000600e0
:101314000200fa0010002000000f780045ff0700cb
:101324007d00070068000700310007000500070082
:10133400b3fe0700f1c0b30010c0b300bafe07004b
:10134400fcff37000000fa00113a8000000027007b
:101354008080600000002300808f50002200320053
:10136400113a8000f08f2f00808060000030200050
:1013740001007000103a880000000000113a80005b
:1013840000022000008060000000e000fbff32004b
:101394003200200080072000a109200033742000bf
:1013a4008049780081497800824978001200200041
:1013b4006004200071052000237420008049780017
:1013c4008149780082497800010037004207a8006b
:1013d400113a800000002700808060000000230094
:1013e400808f5000f9ff3a000080fa0000000600e8
:1013f4000000fa00210c800080ff2f0000806000b4
:10140400200c8800210c800080ff2f0000806000e9
:101414000010a000200c8800210c800080ff2f0009
:1014240000806000200c88008461a9005000200026
:10143400100c880021058000f08f2f0000806000d0
:101444000090a00020058800210c800080ff2f0060
:10145400008060003000b300200c88008440a900a4
:0c1464009440a9000080fa00000006007f
:020000040000fa
:1014700018080000e6130000000000000c0800003f
:101480000a00000000000000000800000c0000003e
:101490000200000000000000000100000000000049
:1014a00008180800160800000200000000000000f4
:1014b000fe1b00000400000000000000021c0000f1
:0c14c0000200000000000000000000001e
:020000040000fa
:1014cc000000fa0011e1a9001021a90010c1a90027
:1014dc0081088000f0fc2f000080600080088800ec
:1014ec000621ef00a0002000600888003105800074
:1014fc00f0ff28000080600000c0a00030058800cc
:10150c0084e0a90094e0a9000080fa000000060025
:10151c000000fa00011c8000f0fc2f00008060002d
:10152c00001c8800011c8000c0ff2f0000806000a0
:10153c000010a000001c880000302000401c880017
:10154c008a23ef00d0002000101c88008480a900a2
:10155c009480a9000080fa00000006000000fa0048
:10156c000080fa00000006000000fa000080fa007b
:04157c000000060065
:020000040000fa
:0200000401f009
:04000000ffffff00ff
:020000040000fa
:0200000401f009
:04000400ffffff00fb
:020000040000fa
:0200000401f009
:04000800ffffff00f7
:020000040000fa
:0200000401f009
:04000c00830000006d
:020000040000fa
:0200000401f009
:040010008500000067
:020000040000fa
:0200000401f009
:040014005f00000089
:020000040000fa
:0200000401f009
:04001800f7000000ed
:020000040000fa
:0200000401f009
:04001c00dfff000002
:00000001FF
